:100000000C942A000C9459200C9486200C94B32054
:100010000C9447000C9447000C9447000C94C5299D
:100020000C9447000C9447000C9447000C94470034
:100030000C9447000C9447000C9447000C94470024
:100040000C9447000C9447000C9447000C94470014
:100050000C94470011241FBECFE5D8E0DEBFCDBF12
:1000600011E0A0E6B0E0ECE8F6E502C005900D92E4
:10007000AE34B107D9F711E0AEE4B1E001C01D9292
:10008000AA36B107E1F70E94F2290C94442B0C9494
:100090000000EF92FF920F931F937B018C0120E0F1
:1000A00030E040E05FE40E94490388238CF0C801FF
:1000B000B70120E030E040E05FE40E94C1010E940F
:1000C000A9039B01AC01205030404040504806C07D
:1000D000C801B7010E94A9039B01AC01B901CA0183
:1000E0001F910F91FF90EF900895A0E0B0E0EBE733
:1000F000F0E00C940D2BDC012B01FA019C91923065
:1001000008F439C1EB018881823008F433C194309E
:1001100069F4843009F02FC111969C91119789815F
:10012000981709F428C1A2E3B1E025C1843009F48D
:1001300021C18230A9F4923009F01DC19A01AD01AC
:1001400088E0EA010990AE01E90109929E0181501F
:10015000C1F7E201898111969C918923818308C1AD
:10016000923009F407C112962D903C901397EB0141
:100170008A819B811496AD90BD90CD90DC901797AD
:10018000EC80FD800E811F819101281B390BB90184
:1001900037FF04C066277727621B730B6032710537
:1001A0000CF061C0121613066CF537014801062EDB
:1001B00004C096948794779467940A94D2F721E0C8
:1001C00030E040E050E004C0220F331F441F551FB1
:1001D0006A95D2F721503040404050402E213F21B7
:1001E00040235123211531054105510521F021E01E
:1001F00030E040E050E079018A01E628F72808293C
:1002000019293CC0232BD1F1260E371E350146019A
:10021000062E04C096948794779467940A94D2F734
:1002200021E030E040E050E004C0220F331F441FC3
:10023000551F6A95D2F721503040404050402A2146
:100240003B214C215D21211531054105510521F04E
:1002500021E030E040E050E059016A01A628B728CB
:10026000C828D9280BC0821593052CF01C01AA249C
:10027000BB24650103C0EE24FF24870111969C91E5
:10028000D20111968C91981709F445C0992339F041
:10029000A80197012A193B094C095D0906C0A6016E
:1002A00095012E193F09400B510B57FD08C01182D3
:1002B0003382228224833583468357831DC081E0A5
:1002C00081833382228288279927DC01821B930B4A
:1002D000A40BB50B84839583A683B7830DC0220F2F
:1002E000331F441F551F24833583468357838281E0
:1002F000938101979383828324813581468157813D
:10030000DA01C9010197A109B1098F5F9F4FAF4F72
:10031000BF4328F30BC0918333822282EA0CFB1C7B
:100320000C1D1D1DE482F5820683178383E0808304
:10033000248135814681578157FF1AC0C901AA27F8
:1003400097FDA095BA2F81709070A070B0705695EF
:10035000479537952795822B932BA42BB52B848318
:100360009583A683B7838281938101969383828349
:10037000DF0101C0D201CD01CDB7DEB7E2E10C94BF
:10038000292BA0E2B0E0E7ECF1E00C94192B698393
:100390007A838B839C832D833E834F835887E9E048
:1003A000EE2EF12CEC0EFD1ECE010196B7010E943F
:1003B000D2048E010F5E1F4FCE010596B8010E9438
:1003C000D2048A8991E089278A8BC701B801AE01DE
:1003D000475E5F4F0E9475000E94FD03A096E6E015
:1003E0000C94352BA0E2B0E0E8EFF1E00C94192B6F
:1003F00069837A838B839C832D833E834F835887C5
:10040000F9E0EF2EF12CEC0EFD1ECE010196B701A6
:100410000E94D2048E010F5E1F4FCE010596B801D7
:100420000E94D204C701B801AE01475E5F4F0E942F
:1004300075000E94FD03A096E6E00C94352BA0E227
:10044000B0E0E5E2F2E00C940D2B69837A838B83B4
:100450009C832D833E834F835887CE010196BE0136
:10046000675F7F4F0E94D204CE010596BE016F5E8A
:100470007F4F0E94D2049985923088F0898982301A
:10048000C8F0943019F4823051F404C0843029F457
:10049000923081F482E391E0C6C0923049F420E0CA
:1004A0009A858A89981321E02A87CE010996BBC0D4
:1004B000823049F420E09A858A89981321E02A8BBA
:1004C000CE014196B0C02D843E844F8458886D88FB
:1004D0007E888F88988CEE24FF248701AA24BB2471
:1004E000650140E050E060E070E0E0E0F0E0C10174
:1004F00081709070892BE9F0E60CF71C081D191D1E
:100500009A01AB012A0D3B1D4C1D5D1D80E090E062
:10051000A0E0B0E0E614F7040805190520F481E036
:1005200090E0A0E0B0E0BA01A901480F591F6A1F8E
:100530007B1FAA0CBB1CCC1CDD1C97FE08C081E0F5
:1005400090E0A0E0B0E0A82AB92ACA2ADB2A3196B6
:10055000E032F10549F0660C771C881C991C569412
:10056000479437942794C3CFFA85EA892B893C892D
:100570008B859C85280F391F2E5F3F4F17C0CA01FE
:1005800081709070892B61F016950795F794E79428
:1005900080E090E0A0E0B0E8E82AF92A0A2B1B2BC3
:1005A00076956795579547952F5F3F4F77FDE7CF36
:1005B0000CC0440F551F661F771F17FD4160EE0CDE
:1005C000FF1C001F111F21503040403090E05907A0
:1005D00090E0690790E4790760F32B8F3C8FDB0193
:1005E000CA018F779070A070B07080349105A1051A
:1005F000B10561F447FD0AC0E114F10401051105DC
:1006000029F0405C5F4F6F4F7F4F40781A8EFE1786
:1006100011F081E08A8F4D8F5E8F6F8F78A383E01A
:10062000898FCE0149960E94FD03A096E2E10C94C9
:10063000292BA8E1B0E0EFE1F3E00C94192B6983DA
:100640007A838B839C832D833E834F83588789E0F5
:10065000E82EF12CEC0EFD1ECE010196B7010E9492
:10066000D2048E010F5E1F4FCE010596B8010E9485
:10067000D2048985823040F08989823028F0C70110
:10068000B8010E944A0501C08FEF6896E6E00C941D
:10069000352BA8E1B0E0EFE4F3E00C94192B69836B
:1006A0007A838B839C832D833E834F83588789E095
:1006B000E82EF12CEC0EFD1ECE010196B7010E9432
:1006C000D2048E010F5E1F4FCE010596B8010E9425
:1006D000D2048985823040F08989823028F0C701B0
:1006E000B8010E944A0501C08FEF6896E6E00C94BD
:1006F000352BA8E1B0E0EFE7F3E00C94192B698308
:100700007A838B839C832D833E834F83588789E034
:10071000E82EF12CEC0EFD1ECE010196B7010E94D1
:10072000D2048E010F5E1F4FCE010596B8010E94C4
:10073000D2048985823040F08989823028F0C7014F
:10074000B8010E944A0501C081E06896E6E00C9479
:10075000352BACE0B0E0EFEAF3E00C941D2B69839D
:100760007A838B839C83CE010196BE016B5F7F4FA2
:100770000E94D2048D81823061F1823050F1843048
:1007800021F48E81882351F12EC02F81388537FDC9
:1007900020C06E812F3131051CF06623F9F023C093
:1007A0008EE190E0821B930B29853A854B855C8511
:1007B00004C056954795379527958A95D2F76623B5
:1007C000B1F050954095309521953F4F4F4F5F4F79
:1007D0000EC020E030E040E050E009C02FEF3FEFD6
:1007E0004FEF5FE704C020E030E040E050E8B9019F
:1007F000CA012C96E2E00C94392BDF92EF92FF9223
:100800000F931F93FC01E480F58006811781D1804E
:100810008081823048F480E090E0A0E1B0E0E82AF6
:10082000F92A0A2B1B2BA5C0843009F49FC0823003
:1008300021F4EE24FF24870105C0E114F104010531
:10084000110519F4E0E0F0E096C0628173819FEF3A
:10085000623879070CF05BC022E83FEF261B370BAC
:100860002A3131052CF020E030E040E050E02AC091
:10087000B801A701022E04C0769567955795479554
:100880000A94D2F781E090E0A0E0B0E004C0880FC5
:10089000991FAA1FBB1F2A95D2F70197A109B10979
:1008A0008E219F21A023B1230097A105B10521F03E
:1008B00081E090E0A0E0B0E09A01AB01282B392B59
:1008C0004A2B5B2BDA01C9018F779070A070B07052
:1008D00080349105A105B10539F427FF09C0205CDA
:1008E0003F4F4F4F5F4F04C0215C3F4F4F4F5F4F13
:1008F000E0E0F0E02030A0E03A07A0E04A07A0E402
:100900005A0710F0E1E0F0E079018A0127C0603871
:10091000710564F5FB01E158FF4FD801C7018F77DE
:100920009070A070B07080349105A105B10539F4C4
:10093000E7FE0DC080E490E0A0E0B0E004C08FE3EB
:1009400090E0A0E0B0E0E80EF91E0A1F1B1F17FFA1
:1009500005C016950795F794E794319687E01695AC
:100960000795F794E7948A95D1F705C0EE24FF2404
:100970008701EFEFF0E06E2F679566276795902F60
:100980009F77D794DD24D7948E2F8695492F462BB9
:10099000582F5D29B701CA011F910F91FF90EF9069
:1009A000DF900895FC01DB01408151812281622F9B
:1009B0006F7770E0221F2227221F9381892F880FD3
:1009C000822B282F30E0991F9927991F11969C930D
:1009D000119721153105A9F54115510561057105DD
:1009E00011F482E037C082E89FEF13969C938E93B8
:1009F00012979A01AB0167E0220F331F441F551F66
:100A00006A95D1F783E08C930DC0220F331F441FEA
:100A1000551F12968D919C911397019713969C9355
:100A20008E931297203080E0380780E0480780E4FA
:100A3000580758F314962D933D934D935C93179755
:100A400008952F3F310579F4411551056105710570
:100A500019F484E08C93089564FF03C081E08C93C3
:100A600012C01C9210C02F57304013963C932E9307
:100A7000129783E08C9387E0440F551F661F771F02
:100A80008A95D1F7706414964D935D936D937C9322
:100A9000179708951F93DC01FB019C91923008F495
:100AA00047C08081823008F443C0943051F41196DD
:100AB0001C91843099F58181682F70E0611B710968
:100AC0003FC0843021F0923031F48230B9F181811D
:100AD000882389F12DC011961C9111978230F1F075
:100AE00081811817D9F412962D913C911397828128
:100AF00093818217930794F028173907BCF0149656
:100B00008D919D910D90BC91A02D248135814681C0
:100B10005781281739074A075B0718F4112341F05A
:100B20000AC082179307A407B50740F4112319F0F0
:100B300061E070E005C06FEF7FEF02C060E070E041
:100B4000CB011F910895DF93CF93CDB7DEB76C979C
:100B50000FB6F894DEBF0FBECDBF0E94E02081E04B
:100B60000E94C61F2CEF38E181E0B9010E942020CD
:100B70000E94A82280E064E00E943B2780E090E091
:100B8000A0EAB1E4898F9A8FAB8FBC8F698D7A8D83
:100B90008B8D9C8D20E030E04AE755E40E941F02D7
:100BA000DC01CB018D8B9E8BAF8BB88F6D897E89DD
:100BB0008F89988D20E030E040E85FE30E94790360
:100BC00088232CF481E090E09C8B8B8B3FC06D8957
:100BD0007E898F89988D20E03FEF4FE757E40E9490
:100BE000190318164CF5698D7A8D8B8D9C8D20E03C
:100BF00030E040E251E40E941F02DC01CB01BC0165
:100C0000CD010E944900DC01CB019C8B8B8B0FC076
:100C100080E991E09A8B898B89899A890197F1F70C
:100C20009A8B898B8B899C8901979C8B8B8B8B8969
:100C30009C89009769F714C06D897E898F89988D8A
:100C40000E944900DC01CB019C8B8B8B8B899C899A
:100C5000988B8F878F8598890197F1F7988B8F876D
:100C600080E690E00E94122780E090E0AAE7B4E4DA
:100C70008B879C87AD87BE876B857C858D859E85A0
:100C800020E030E04AE755E40E941F02DC01CB017E
:100C90008F839887A987BA876F81788589859A8598
:100CA00020E030E040E85FE30E94790388232CF4E1
:100CB00081E090E09E838D833FC06F817885898538
:100CC0009A8520E03FEF4FE757E40E94190318167A
:100CD0004CF56B857C858D859E8520E030E040E27B
:100CE00051E40E941F02DC01CB01BC01CD010E9436
:100CF0004900DC01CB019E838D830FC080E991E028
:100D00009C838B838B819C810197F1F79C838B83E0
:100D10008D819E8101979E838D838D819E81009719
:100D200069F714C06F81788589859A850E9449008A
:100D3000DC01CB019E838D838D819E819A83898383
:100D400089819A810197F1F79A8389830E94FC2017
:100D50000E94731B83E00E94262884E00E942628BC
:100D600082E00E9426280E9432290E9489298EEB67
:100D700099E10E94772983E067E041E00E94BA1C74
:100D80006C960FB6F894DEBF0FBECDBFCF91DF914A
:100D90000895DF93CF93CDB7DEB7A0970FB6F89441
:100DA000DEBF0FBECDBF80E090E0AAEFB3E4898F35
:100DB0009A8FAB8FBC8F698D7A8D8B8D9C8D20E047
:100DC00030E04AE755E40E941F02DC01CB018D8B25
:100DD0009E8BAF8BB88F6D897E898F89988D20E02F
:100DE00030E040E85FE30E94790388232CF481E03F
:100DF00090E09C8B8B8B3FC06D897E898F89988D0D
:100E000020E03FEF4FE757E40E94190318164CF516
:100E1000698D7A8D8B8D9C8D20E030E040E251E42D
:100E20000E941F02DC01CB01BC01CD010E944900E0
:100E3000DC01CB019C8B8B8B0FC080E991E09A8BFE
:100E4000898B89899A890197F1F79A8B898B8B898C
:100E50009C8901979C8B8B8B8B899C89009769F768
:100E600014C06D897E898F89988D0E944900DC01AC
:100E7000CB019C8B8B8B8B899C89988B8F878F85E3
:100E800098890197F1F7988B8F878FEF8D8F8FEF70
:100E90008D8F0E943F218D8F8D8D8F3F21F480910A
:100EA0004F018A30A0F380914F018A3009F467C066
:100EB00010924F018D8D282F30E03F8F2E8F8E8D19
:100EC0009F8D8533910579F12E8D3F8D2633310528
:100ED0008CF48E8D9F8D8333910509F448C02E8D3F
:100EE0003F8D24333105DCF48E8D9F8D8233910547
:100EF000A1F140C02E8D3F8D27333105E1F08E8D5D
:100F00009F8D873391059CF02E8D3F8D28333105C1
:100F1000B1F08E8D9F8D89339105A9F02BC081E0B2
:100F200080935F0127C082E080935F0123C083E04C
:100F300080935F011FC084E080935F011BC085E048
:100F400080935F0117C086E080935F0113C083E048
:100F50000E946A2888E080935F010E943F218233CB
:100F6000B1F310925F0183E00E94AE2803C087E0D6
:100F700080935F0180915F0188A388A18DC00E944A
:100F800062278BE690E00E94122783E067E00E94D0
:100F9000CE1E80E090E0AAEFB3E48B879C87AD87FC
:100FA000BE876B857C858D859E8520E030E04AE795
:100FB00055E40E941F02DC01CB018F839887A9872B
:100FC000BA876F81788589859A8520E030E040E88E
:100FD0005FE30E94790388232CF481E090E09E83F4
:100FE0008D833FC06F81788589859A8520E03FEFAA
:100FF0004FE757E40E94190318164CF56B857C8562
:101000008D859E8520E030E040E251E40E941F0281
:10101000DC01CB01BC01CD010E944900DC01CB0108
:101020009E838D830FC080E991E09C838B838B81AD
:101030009C810197F1F79C838B838D819E81019721
:101040009E838D838D819E81009769F714C06F8187
:10105000788589859A850E944900DC01CB019E83B1
:101060008D838D819E819A83898389819A8101975D
:10107000F1F79A8389838FEF8D8F0E943F218D8FA7
:101080008D8D8F3F09F481CF10924F010E9462270E
:1010900086E790E00E941227A0960FB6F894DEBF74
:1010A0000FBECDBFCF91DF910895DF93CF93CDB722
:1010B000DEB760970FB6F894DEBF0FBECDBF80914C
:1010C0005A01823009F0CBC080915E01882361F41F
:1010D0008BE391E00E943B298CE591E00E943B2943
:1010E00081E080935E017EC080913B0190913C0144
:1010F00090935D0180935C0180E090E0AAEFB3E4FF
:101100008B879C87AD87BE876B857C858D859E850B
:1011100020E030E04AE755E40E941F02DC01CB01E9
:101120008F839887A987BA876F81788589859A8503
:1011300020E030E040E85FE30E94790388232CF44C
:1011400081E090E09E838D833FC06F8178858985A3
:101150009A8520E03FEF4FE757E40E9419031816E5
:101160004CF56B857C858D859E8520E030E040E2E6
:1011700051E40E941F02DC01CB01BC01CD010E94A1
:101180004900DC01CB019E838D830FC080E991E093
:101190009C838B838B819C810197F1F79C838B834C
:1011A0008D819E8101979E838D838D819E81009785
:1011B00069F714C06F81788589859A850E944900F6
:1011C000DC01CB019E838D838D819E819A838983EF
:1011D00089819A810197F1F79A8389838BE391E062
:1011E0000E943B2920913B0130913C0180915C01A0
:1011F00090915D012817390739F0809156018130AF
:1012000019F41092560125C020913B0130913C0108
:1012100080915C0190915D0128173907D1F480918C
:101220005601282F30E0388B2F878F8598890097BB
:1012300031F02F8538892130310539F00AC081E03D
:10124000809356010E94A21B04C0109256010E9476
:10125000A21B80915B01823011F40E94EE0C60961B
:101260000FB6F894DEBF0FBECDBFCF91DF910895CA
:10127000DF93CF9300D0CDB7DEB780915A01823093
:10128000E1F480915701282F30E03A832983898146
:101290009A81009731F029813A812130310529F076
:1012A00006C081E08093570102C0109257018091DF
:1012B0005B01823011F40E94EE0C0F900F90CF91E1
:1012C000DF910895DF93CF9300D0CDB7DEB7809143
:1012D0005A01823009F067C080915801282F30E010
:1012E0003A83298389819A81009731F029813A8153
:1012F0002130310529F006C081E08093580102C0F9
:101300001092580180913B0190913C0190935D01B6
:1013100080935C018BE391E00E943B29809158010E
:101320008130D9F52DC081E08093500180913B013F
:1013300090913C0190935D0180935C018BE391E07F
:101340000E943B290E943F21873311F40E94D80953
:101350000E943F21863319F4109258011CC08091DD
:101360005A01813021F080915A01882319F410929A
:10137000580111C080915B01823011F40E94EE0C83
:1013800080913D01282F30E080913B0190913C01FC
:101390002817390740F21092500180915B0182308A
:1013A00011F40E94EE0C0F900F90CF91DF910895F1
:1013B000DF93CF93CDB7DEB780913D018B5F8093F4
:1013C0003D0180915B01813011F40E943F0ACF9171
:1013D000DF910895DF93CF93CDB7DEB780913D01C4
:1013E000855080933D0180915B01813011F40E9412
:1013F0003F0ACF91DF910895DF93CF9300D0CDB70F
:10140000DEB70E94622780915B01282F30E03A838B
:10141000298389819A8181309105C1F029813A819E
:10142000223031052CF489819A81009761F016C031
:1014300029813A812230310561F089819A81833096
:10144000910551F00BC00E943F0A08C00E94EE0CAB
:1014500005C00E94361602C00E94DA1A80915B0114
:10146000833019F410925B0105C080915B018F5F9E
:1014700080935B010F900F90CF91DF9108950F93B0
:101480001F93DF93CF93CDB7DEB7C654D0400FB6CE
:10149000F894DEBF0FBECDBF80E064E00E943B2722
:1014A0008EE790E00E941227FE01ED5BFF4F80E087
:1014B00090E0A0EAB1E480839183A283B3838E019C
:1014C000015C1F4FFE01ED5BFF4F608171818281E6
:1014D000938120E030E04AE755E40E941F02DC01DE
:1014E000CB01F80180839183A283B383FE01FF9631
:1014F000608171818281938120E030E040E85FE388
:101500000E94790388232CF481E090E09EAF8DAF98
:1015100046C0FE01FF96608171818281938120E047
:101520003FEF4FE757E40E941903181664F5FE01D8
:10153000ED5BFF4F608171818281938120E030E01B
:1015400040E251E40E941F02DC01CB01BC01CD014D
:101550000E944900DC01CB019EAF8DAF0FC080E936
:1015600091E09CAF8BAF8BAD9CAD0197F1F79CAF39
:101570008BAF8DAD9EAD01979EAF8DAF8DAD9EAD06
:10158000009769F716C0FE01FF9660817181828124
:1015900093810E944900DC01CB019EAF8DAF8DADE0
:1015A0009EAD9AAF89AF89AD9AAD0197F1F79AAF29
:1015B00089AF81E060E00E943B278BE890E00E94C9
:1015C000122780E090E0A0EAB1E48DAB9EABAFAB18
:1015D000B8AF6DA97EA98FA998AD20E030E04AE7A9
:1015E00055E40E941F02DC01CB0189AB9AABABAB87
:1015F000BCAB69A97AA98BA99CA920E030E040E89E
:101600005FE30E94790388232CF481E090E098AB9B
:101610008FA73FC069A97AA98BA99CA920E03FEFB9
:101620004FE757E40E94190318164CF56DA97EA9DF
:101630008FA998AD20E030E040E251E40E941F0203
:10164000DC01CB01BC01CD010E944900DC01CB01D2
:1016500098AB8FA70FC080E991E09EA78DA78DA5BD
:101660009EA50197F1F79EA78DA78FA598A9019731
:1016700098AB8FA78FA598A9009769F714C069A99F
:101680007AA98BA99CA90E944900DC01CB0198ABE7
:101690008FA78FA598A99CA78BA78BA59CA5019721
:1016A000F1F79CA78BA782E060E00E943B2780E0D7
:1016B00090E0A0EAB1E48FA398A7A9A7BAA76FA169
:1016C00078A589A59AA520E030E04AE755E40E9474
:1016D0001F02DC01CB018BA39CA3ADA3BEA36BA116
:1016E0007CA18DA19EA120E030E040E85FE30E9454
:1016F000790388232CF481E090E09AA389A33FC06A
:101700006BA17CA18DA19EA120E03FEF4FE757E4A4
:101710000E94190318164CF56FA178A589A59AA502
:1017200020E030E040E251E40E941F02DC01CB01E6
:10173000BC01CD010E944900DC01CB019AA389A321
:101740000FC080E991E098A38F8F8F8D98A10197AA
:10175000F1F798A38F8F89A19AA101979AA389A3E2
:1017600089A19AA1009769F714C06BA17CA18DA1F2
:101770009EA10E944900DC01CB019AA389A389A103
:101780009AA19E8F8D8F8D8D9E8D0197F1F79E8FE3
:101790008D8F80915A01823099F482EA90E00E9404
:1017A000122780913B0190913C01CC01A0E0B0E078
:1017B000BC01CD010E946C2789EA90E00E941227AB
:1017C00082E06DE00E943B2780E090E0A0EAB1E477
:1017D000898F9A8FAB8FBC8F698D7A8D8B8D9C8D05
:1017E00020E030E04AE755E40E941F02DC01CB0113
:1017F0008D8B9E8BAF8BB88F6D897E898F89988DED
:1018000020E030E040E85FE30E94790388232CF475
:1018100081E090E09C8B8B8B3FC06D897E898F89A6
:10182000988D20E03FEF4FE757E40E941903181608
:101830004CF5698D7A8D8B8D9C8D20E030E040E2F7
:1018400051E40E941F02DC01CB01BC01CD010E94CA
:101850004900DC01CB019C8B8B8B0FC080E991E0B0
:101860009A8B898B89899A890197F1F79A8B898B51
:101870008B899C8901979C8B8B8B8B899C8900978A
:1018800069F714C06D897E898F89988D0E944900FF
:10189000DC01CB019C8B8B8B8B899C89988B8F87F0
:1018A0008F8598890197F1F7988B8F878EEA90E062
:1018B0000E94122780913D01882F90E0A0E0B0E0C7
:1018C000BC01CD010E946C2782EB90E00E941227A0
:1018D00083E061E10E943B2780E090E0A0EAB1E470
:1018E0008B879C87AD87BE876B857C858D859E8524
:1018F00020E030E04AE755E40E941F02DC01CB0102
:101900008F839887A987BA876F81788589859A851B
:1019100020E030E040E85FE30E94790388232CF464
:1019200081E090E09E838D833FC06F8178858985BB
:101930009A8520E03FEF4FE757E40E9419031816FD
:101940004CF56B857C858D859E8520E030E040E2FE
:1019500051E40E941F02DC01CB01BC01CD010E94B9
:101960004900DC01CB019E838D830FC080E991E0AB
:101970009C838B838B819C810197F1F79C838B8364
:101980008D819E8101979E838D838D819E8100979D
:1019900069F714C06F81788589859A850E9449000E
:1019A000DC01CB019E838D838D819E819A83898307
:1019B00089819A810197F1F79A83898385EB90E079
:1019C0000E941227CA5BDF4F0FB6F894DEBF0FBE2E
:1019D000CDBFCF91DF911F910F9108950F931F936A
:1019E000DF93CF93CDB7DEB7C45CD0400FB6F89489
:1019F000DEBF0FBECDBF83E061E10E943B27FE0149
:101A0000EF53FF4F80E090E0A0EAB1E48083918340
:101A1000A283B3838E0103541F4FFE01EF53FF4F88
:101A2000608171818281938120E030E04AE755E452
:101A30000E941F02DC01CB01F80180839183A28305
:101A4000B383FE01E354FF4F6081718182819381F2
:101A500020E030E040E85FE30E947903882344F40B
:101A6000FE01E554FF4F81E090E09183808364C0E4
:101A7000FE01E354FF4F608171818281938120E0F8
:101A80003FEF4FE757E40E94190318160CF043C0CC
:101A9000FE01EF53FF4F608171818281938120E0CD
:101AA00030E040E251E40E941F02DC01CB018E01D4
:101AB00005541F4FBC01CD010E944900DC01CB0140
:101AC000F801918380831FC0FE01E754FF4F80E936
:101AD00091E091838083FE01E754FF4F80819181E3
:101AE0000197F1F7FE01E754FF4F91838083DE01F8
:101AF000A554BF4FFE01E554FF4F808191810197AE
:101B000011969C938E93FE01E554FF4F8081918145
:101B10000097D1F627C08E0105541F4FFE01E354F4
:101B2000FF4F60817181828193810E944900DC01B5
:101B3000CB01F80191838083DE01A954BF4FFE01E0
:101B4000E554FF4F808191818D939C93FE01E95470
:101B5000FF4F808191810197F1F7FE01E954FF4F1A
:101B60009183808389EB90E00E94122783E06AE0F2
:101B70000E943B27FE01ED54FF4F80E090E0A0EA79
:101B8000B1E480839183A283B3838E0101551F4FFB
:101B9000FE01ED54FF4F608171818281938120E0CD
:101BA00030E04AE755E40E941F02DC01CB01F80156
:101BB00080839183A283B383FE01E155FF4F60814F
:101BC00071818281938120E030E040E85FE30E94F0
:101BD0007903882344F4FE01E355FF4F81E090E050
:101BE0009183808364C0FE01E155FF4F6081718164
:101BF0008281938120E03FEF4FE757E40E94190371
:101C000018160CF043C0FE01ED54FF4F6081718146
:101C10008281938120E030E040E251E40E941F0283
:101C2000DC01CB018E0103551F4FBC01CD010E9489
:101C30004900DC01CB01F801918380831FC0FE01C4
:101C4000E555FF4F80E991E091838083FE01E555E2
:101C5000FF4F808191810197F1F7FE01E555FF4F1C
:101C600091838083DE01A355BF4FFE01E355FF4FF3
:101C700080819181019711969C938E93FE01E3558B
:101C8000FF4F808191810097D1F627C08E010355C7
:101C90001F4FFE01E155FF4F608171818281938169
:101CA0000E944900DC01CB01F80191838083DE01B1
:101CB000A755BF4FFE01E355FF4F808191818D9362
:101CC0009C93FE01E755FF4F808191810197F1F7C9
:101CD000FE01E755FF4F918380838DEB90E00E94DA
:101CE000122780E064E00E943B27FE01EB55FF4F86
:101CF00080E090E0A0EAB1E480839183A283B38383
:101D00008E010F551F4FFE01EB55FF4F6081718112
:101D10008281938120E030E04AE755E40E941F026F
:101D2000DC01CB01F80180839183A283B383FE01A0
:101D3000EF55FF4F608171818281938120E030E017
:101D400040E85FE30E947903882344F4FE01E156F2
:101D5000FF4F81E090E09183808364C0FE01EF55E6
:101D6000FF4F608171818281938120E03FEF4FE7D7
:101D700057E40E94190318160CF043C0FE01EB55FE
:101D8000FF4F608171818281938120E030E040E2E9
:101D900051E40E941F02DC01CB018E0101561F4F4E
:101DA000BC01CD010E944900DC01CB01F801918307
:101DB00080831FC0FE01E356FF4F80E991E09183CD
:101DC0008083FE01E356FF4F808191810197F1F7F7
:101DD000FE01E356FF4F91838083DE01A156BF4F82
:101DE000FE01E156FF4F80819181019711969C93EE
:101DF0008E93FE01E156FF4F808191810097D1F6CD
:101E000027C08E0101561F4FFE01EF55FF4F608125
:101E10007181828193810E944900DC01CB01F8012C
:101E200091838083DE01A556BF4FFE01E156FF4F2F
:101E3000808191818D939C93FE01E556FF4F8081B7
:101E400091810197F1F7FE01E556FF4F9183808361
:101E50008EE790E00E941227FE01E956FF4F80E0D6
:101E600090E0A0EAB1E480839183A283B3838E01E2
:101E70000D561F4FFE01E956FF4F6081718182812F
:101E8000938120E030E04AE755E40E941F02DC0124
:101E9000CB01F80180839183A283B383FE01ED56C9
:101EA000FF4F608171818281938120E030E040E8C2
:101EB0005FE30E947903882344F4FE01EF56FF4F4D
:101EC00081E090E09183808364C0FE01ED56FF4F76
:101ED000608171818281938120E03FEF4FE757E479
:101EE0000E94190318160CF043C0FE01E956FF4F7B
:101EF000608171818281938120E030E040E251E491
:101F00000E941F02DC01CB018E010F561F4FBC0146
:101F1000CD010E944900DC01CB01F801918380834F
:101F20001FC0FE01E157FF4F80E991E0918380835C
:101F3000FE01E157FF4F808191810197F1F7FE018A
:101F4000E157FF4F91838083DE01AF56BF4FFE0103
:101F5000EF56FF4F80819181019711969C938E934C
:101F6000FE01EF56FF4F808191810097D1F627C087
:101F70008E010F561F4FFE01ED56FF4F608171819C
:101F8000828193810E944900DC01CB01F801918399
:101F90008083DE01A357BF4FFE01EF56FF4F8081C4
:101FA00091818D939C93FE01E357FF4F8081918136
:101FB0000197F1F7FE01E357FF4F9183808381E0A2
:101FC00064E00E943B2784EC90E00E941227FE010F
:101FD000E757FF4F80E090E0A0EAB1E4808391836F
:101FE000A283B3838E010B571F4FFE01E757FF4FAC
:101FF000608171818281938120E030E04AE755E47D
:102000000E941F02DC01CB01F80180839183A2832F
:10201000B383FE01EB57FF4F608171818281938111
:1020200020E030E040E85FE30E947903882344F435
:10203000FE01ED57FF4F81E090E09183808364C003
:10204000FE01EB57FF4F608171818281938120E017
:102050003FEF4FE757E40E94190318160CF043C0F6
:10206000FE01E757FF4F608171818281938120E0FB
:1020700030E040E251E40E941F02DC01CB018E01FE
:102080000D571F4FBC01CD010E944900DC01CB015F
:10209000F801918380831FC0FE01EF57FF4F80E955
:1020A00091E091838083FE01EF57FF4F8081918102
:1020B0000197F1F7FE01EF57FF4F91838083DE0117
:1020C000AD57BF4FFE01ED57FF4F808191810197C2
:1020D00011969C938E93FE01ED57FF4F8081918165
:1020E0000097D1F627C08E010D571F4FFE01EB5709
:1020F000FF4F60817181828193810E944900DC01E0
:10210000CB01F80191838083DE01A158BF4FFE010E
:10211000ED57FF4F808191818D939C93FE01E15893
:10212000FF4F808191810197F1F7FE01E158FF4F48
:102130009183808382E060E00E943B27FE01E558A6
:10214000FF4F80E090E0A0EAB1E480839183A28316
:10215000B3838E0109581F4FFE01E558FF4F608180
:1021600071818281938120E030E04AE755E40E944A
:102170001F02DC01CB01F80180839183A283B3832A
:10218000FE01E958FF4F608171818281938120E0D7
:1021900030E040E85FE30E947903882344F4FE01C5
:1021A000EB58FF4F81E090E09183808364C0FE0193
:1021B000E958FF4F608171818281938120E03FEF78
:1021C0004FE757E40E94190318160CF043C0FE01B4
:1021D000E558FF4F608171818281938120E030E07A
:1021E00040E251E40E941F02DC01CB018E010B583A
:1021F0001F4FBC01CD010E944900DC01CB01F80159
:10220000918380831FC0FE01ED58FF4F80E991E06C
:1022100091838083FE01ED58FF4F8081918101976A
:10222000F1F7FE01ED58FF4F91838083DE01AB583B
:10223000BF4FFE01EB58FF4F8081918101971196AE
:102240009C938E93FE01EB58FF4F80819181009704
:10225000D1F627C08E010B581F4FFE01E958FF4FE2
:1022600060817181828193810E944900DC01CB01F0
:10227000F80191838083DE01AF58BF4FFE01EB5818
:10228000FF4F808191818D939C93FE01EF58FF4F0A
:10229000808191810197F1F7FE01EF58FF4F918303
:1022A00080838AED90E00E94122782E06AE00E941B
:1022B0003B27FE01E359FF4F80E090E0A0EAB1E444
:1022C00080839183A283B3838E0107591F4FFE0140
:1022D000E359FF4F608171818281938120E030E07A
:1022E0004AE755E40E941F02DC01CB01F80180831C
:1022F0009183A283B383FE01E759FF4F608171810F
:102300008281938120E030E040E85FE30E9479031E
:10231000882344F4FE01E959FF4F81E090E0918366
:10232000808364C0FE01E759FF4F60817181828123
:10233000938120E03FEF4FE757E40E9419031816FE
:102340000CF043C0FE01E359FF4F6081718182812F
:10235000938120E030E040E251E40E941F02DC0162
:10236000CB018E0109591F4FBC01CD010E944900CC
:10237000DC01CB01F801918380831FC0FE01EB5982
:10238000FF4F80E991E091838083FE01EB59FF4F7D
:10239000808191810197F1F7FE01EB59FF4F918305
:1023A0008083DE01A959BF4FFE01E959FF4F8081AB
:1023B0009181019711969C938E93FE01E959FF4FED
:1023C000808191810097D1F627C08E0109591F4F56
:1023D000FE01E759FF4F60817181828193810E94E4
:1023E0004900DC01CB01F80191838083DE01AD5906
:1023F000BF4FFE01E959FF4F808191818D939C93DE
:10240000FE01ED59FF4F808191810197F1F7FE01A7
:10241000ED59FF4F9183808382EE90E00E94122756
:1024200083E060E00E943B27FE01E15AFF4F80E01D
:1024300090E0A0EAB1E480839183A283B3838E010C
:10244000055A1F4FFE01E15AFF4F60817181828161
:10245000938120E030E04AE755E40E941F02DC014E
:10246000CB01F80180839183A283B383FE01E55AF7
:10247000FF4F608171818281938120E030E040E8EC
:102480005FE30E947903882344F4FE01E75AFF4F7B
:1024900081E090E09183808364C0FE01E55AFF4FA4
:1024A000608171818281938120E03FEF4FE757E4A3
:1024B0000E94190318160CF043C0FE01E15AFF4FA9
:1024C000608171818281938120E030E040E251E4BB
:1024D0000E941F02DC01CB018E01075A1F4FBC0175
:1024E000CD010E944900DC01CB01F801918380837A
:1024F0001FC0FE01E95AFF4F80E991E0918380837C
:10250000FE01E95AFF4F808191810197F1F7FE01A9
:10251000E95AFF4F91838083DE01A75ABF4FFE0126
:10252000E75AFF4F80819181019711969C938E937A
:10253000FE01E75AFF4F808191810097D1F627C0B5
:102540008E01075A1F4FFE01E55AFF4F60817181CE
:10255000828193810E944900DC01CB01F8019183C3
:102560008083DE01AB5ABF4FFE01E75AFF4F8081E7
:1025700091818D939C93FE01EB5AFF4F8081918155
:102580000197F1F7FE01EB5AFF4F9183808389EEAB
:1025900090E00E94122780915A01882309F45AC3BF
:1025A00080915A01813009F455C380915A018230DB
:1025B00009F050C380915601882309F0BCC082E025
:1025C00060E00E943B27FE01EF5AFF4F80E090E061
:1025D000A0EAB1E480839183A283B3838E01035B7D
:1025E0001F4FFE01EF5AFF4F6081718182819381FD
:1025F00020E030E04AE755E40E941F02DC01CB01F5
:10260000F80180839183A283B383FE01E35BFF4FD4
:10261000608171818281938120E030E040E85FE356
:102620000E947903882344F4FE01E55BFF4F81E0BB
:1026300090E09183808364C0FE01E35BFF4F608183
:1026400071818281938120E03FEF4FE757E40E9440
:10265000190318160CF043C0FE01EF5AFF4F6081BA
:1026600071818281938120E030E040E251E40E9458
:102670001F02DC01CB018E01055B1F4FBC01CD01A8
:102680000E944900DC01CB01F801918380831FC0C7
:10269000FE01E75BFF4F80E991E091838083FE01BB
:1026A000E75BFF4F808191810197F1F7FE01E75BC6
:1026B000FF4F91838083DE01A55BBF4FFE01E55B89
:1026C000FF4F80819181019711969C938E93FE011B
:1026D000E55BFF4F808191810097D1F627C08E0185
:1026E000055B1F4FFE01E35BFF4F608171818281BB
:1026F00093810E944900DC01CB01F8019183808322
:10270000DE01A95BBF4FFE01E55BFF4F8081918138
:102710008D939C93FE01E95BFF4F8081918101972E
:10272000F1F7FE01E95BFF4F918380838AED90E032
:102730000E94122792C080915601813009F08DC00D
:1027400082E060E00E943B27FE01ED5BFF4F80E0EE
:1027500090E0A0EAB1E480839183A283B3838E01E9
:10276000015C1F4FFE01ED5BFF4F60817181828133
:10277000938120E030E04AE755E40E941F02DC012B
:10278000CB01F80180839183A283B383FE01FF967E
:10279000608171818281938120E030E040E85FE3D5
:1027A0000E94790388232CF481E090E09EAF8DAFE6
:1027B00046C0FE01FF96608171818281938120E095
:1027C0003FEF4FE757E40E941903181664F5FE0126
:1027D000ED5BFF4F608171818281938120E030E069
:1027E00040E251E40E941F02DC01CB01BC01CD019B
:1027F0000E944900DC01CB019EAF8DAF0FC080E984
:1028000091E09CAF8BAF8BAD9CAD0197F1F79CAF86
:102810008BAF8DAD9EAD01979EAF8DAF8DAD9EAD53
:10282000009769F716C0FE01FF9660817181828171
:1028300093810E944900DC01CB019EAF8DAF8DAD2D
:102840009EAD9AAF89AF89AD9AAD0197F1F79AAF76
:1028500089AF80EF90E00E94122780915701882372
:1028600009F07BC082E06AE00E943B2780E090E0B4
:10287000A0EAB1E48DAB9EABAFABB8AF6DA97EA9BA
:102880008FA998AD20E030E04AE755E40E941F028E
:10289000DC01CB0189AB9AABABABBCAB69A97AA924
:1028A0008BA99CA920E030E040E85FE30E94790317
:1028B00088232CF481E090E098AB8FA73FC069A9F2
:1028C0007AA98BA99CA920E03FEF4FE757E40E942B
:1028D000190318164CF56DA97EA98FA998AD20E0B3
:1028E00030E040E251E40E941F02DC01CB01BC0158
:1028F000CD010E944900DC01CB0198AB8FA70FC02E
:1029000080E991E09EA78DA78DA59EA50197F1F77F
:102910009EA78DA78FA598A9019798AB8FA78FA584
:1029200098A9009769F714C069A97AA98BA99CA9ED
:102930000E944900DC01CB0198AB8FA78FA598A915
:102940009CA78BA78BA59CA50197F1F79CA78BA7AC
:1029500082EE90E00E9412277FC080915701813063
:1029600009F07AC082E06AE00E943B2780E090E0B4
:10297000A0EAB1E48FA398A7A9A7BAA76FA178A5E9
:1029800089A59AA520E030E04AE755E40E941F029D
:10299000DC01CB018BA39CA3ADA3BEA36BA17CA147
:1029A0008DA19EA120E030E040E85FE30E94790322
:1029B00088232CF481E090E09AA389A33FC06BA107
:1029C0007CA18DA19EA120E03FEF4FE757E40E943C
:1029D000190318164CF56FA178A589A59AA520E0D2
:1029E00030E040E251E40E941F02DC01CB01BC0157
:1029F000CD010E944900DC01CB019AA389A30FC03D
:102A000080E991E098A38F8F8F8D98A10197F1F7BE
:102A100098A38F8F89A19AA101979AA389A389A1CD
:102A20009AA1009769F714C06BA17CA18DA19EA10A
:102A30000E944900DC01CB019AA389A389A19AA134
:102A40009E8F8D8F8D8D9E8D0197F1F79E8F8D8F2F
:102A500088EF90E00E94122780915801813009F0A0
:102A60007AC083E060E00E943B2780E090E0A0EA2B
:102A7000B1E4898F9A8FAB8FBC8F698D7A8D8B8DE6
:102A80009C8D20E030E04AE755E40E941F02DC0103
:102A9000CB018D8B9E8BAF8BB88F6D897E898F8993
:102AA000988D20E030E040E85FE30E9479038823BE
:102AB0002CF481E090E09C8B8B8B3FC06D897E89EC
:102AC0008F89988D20E03FEF4FE757E40E9419036C
:102AD00018164CF5698D7A8D8B8D9C8D20E030E039
:102AE00040E251E40E941F02DC01CB01BC01CD0198
:102AF0000E944900DC01CB019C8B8B8B0FC080E9CD
:102B000091E09A8B898B89899A890197F1F79A8B41
:102B1000898B8B899C8901979C8B8B8B8B899C895A
:102B2000009769F714C06D897E898F89988D0E94FE
:102B30004900DC01CB019C8B8B8B8B899C89988B0A
:102B40008F878F8598890197F1F7988B8F878FEF03
:102B500090E00E94122780915801882309F07AC0E2
:102B600083E060E00E943B2780E090E0A0EAB1E4CF
:102B70008B879C87AD87BE876B857C858D859E8581
:102B800020E030E04AE755E40E941F02DC01CB015F
:102B90008F839887A987BA876F81788589859A8579
:102BA00020E030E040E85FE30E94790388232CF4C2
:102BB00081E090E09E838D833FC06F817885898519
:102BC0009A8520E03FEF4FE757E40E94190318165B
:102BD0004CF56B857C858D859E8520E030E040E25C
:102BE00051E40E941F02DC01CB01BC01CD010E9417
:102BF0004900DC01CB019E838D830FC080E991E009
:102C00009C838B838B819C810197F1F79C838B83C1
:102C10008D819E8101979E838D838D819E810097FA
:102C200069F714C06F81788589859A850E9449006B
:102C3000DC01CB019E838D838D819E819A83898364
:102C400089819A810197F1F79A83898389EE90E0CF
:102C50000E941227CC53DF4F0FB6F894DEBF0FBE91
:102C6000CDBFCF91DF911F910F9108950F931F93C7
:102C7000DF93CF93CDB7DEB7C654D0400FB6F894EC
:102C8000DEBF0FBECDBF83E061E10E943B27FE01A6
:102C9000ED5BFF4F80E090E0A0EAB1E48083918398
:102CA000A283B3838E01015C1F4FFE01ED5BFF4FDA
:102CB000608171818281938120E030E04AE755E4B0
:102CC0000E941F02DC01CB01F80180839183A28363
:102CD000B383FE01FF96608171818281938120E040
:102CE00030E040E85FE30E94790388232CF481E020
:102CF00090E09EAF8DAF46C0FE01FF96608171816E
:102D00008281938120E03FEF4FE757E40E9419034F
:102D1000181664F5FE01ED5BFF4F608171818281C1
:102D2000938120E030E040E251E40E941F02DC0188
:102D3000CB01BC01CD010E944900DC01CB019EAF5B
:102D40008DAF0FC080E991E09CAF8BAF8BAD9CAD98
:102D50000197F1F79CAF8BAF8DAD9EAD01979EAF04
:102D60008DAF8DAD9EAD009769F716C0FE01FF9641
:102D700060817181828193810E944900DC01CB01D5
:102D80009EAF8DAF8DAD9EAD9AAF89AF89AD9AAD37
:102D90000197F1F79AAF89AF86E091E00E94122780
:102DA00080E064E00E943B2780E090E0A0EAB1E48C
:102DB0008DAB9EABAFABB8AF6DA97EA98FA998AD17
:102DC00020E030E04AE755E40E941F02DC01CB011D
:102DD00089AB9AABABABBCAB69A97AA98BA99CA90F
:102DE00020E030E040E85FE30E94790388232CF480
:102DF00081E090E098AB8FA73FC069A97AA98BA921
:102E00009CA920E03FEF4FE757E40E9419031816F2
:102E10004CF56DA97EA98FA998AD20E030E040E285
:102E200051E40E941F02DC01CB01BC01CD010E94D4
:102E30004900DC01CB0198AB8FA70FC080E991E07E
:102E40009EA78DA78DA59EA50197F1F79EA78DA79B
:102E50008FA598A9019798AB8FA78FA598A90097E0
:102E600069F714C069A97AA98BA99CA90E94490095
:102E7000DC01CB0198AB8FA78FA598A99CA78BA746
:102E80008BA59CA50197F1F79CA78BA78EE790E0F7
:102E90000E94122780E090E0A0EAB1E48FA398A7F7
:102EA000A9A7BAA76FA178A589A59AA520E030E0C7
:102EB0004AE755E40E941F02DC01CB018BA39CA3CF
:102EC000ADA3BEA36BA17CA18DA19EA120E030E0AB
:102ED00040E85FE30E94790388232CF481E090E0CE
:102EE0009AA389A33FC06BA17CA18DA19EA120E0E4
:102EF0003FEF4FE757E40E94190318164CF56FA1F6
:102F000078A589A59AA520E030E040E251E40E942E
:102F10001F02DC01CB01BC01CD010E944900DC0194
:102F2000CB019AA389A30FC080E991E098A38F8F6A
:102F30008F8D98A10197F1F798A38F8F89A19AA1FE
:102F400001979AA389A389A19AA1009769F714C050
:102F50006BA17CA18DA19EA10E944900DC01CB0147
:102F60009AA389A389A19AA19E8F8D8F8D8D9E8D05
:102F70000197F1F79E8F8D8F81E064E00E943B27DF
:102F800084EC90E00E94122780E090E0A0EAB1E497
:102F9000898F9A8FAB8FBC8F698D7A8D8B8D9C8D2D
:102FA00020E030E04AE755E40E941F02DC01CB013B
:102FB0008D8B9E8BAF8BB88F6D897E898F89988D15
:102FC00020E030E040E85FE30E94790388232CF49E
:102FD00081E090E09C8B8B8B3FC06D897E898F89CF
:102FE000988D20E03FEF4FE757E40E941903181631
:102FF0004CF5698D7A8D8B8D9C8D20E030E040E220
:1030000051E40E941F02DC01CB01BC01CD010E94F2
:103010004900DC01CB019C8B8B8B0FC080E991E0D8
:103020009A8B898B89899A890197F1F79A8B898B79
:103030008B899C8901979C8B8B8B8B899C890097B2
:1030400069F714C06D897E898F89988D0E94490027
:10305000DC01CB019C8B8B8B8B899C89988B8F8718
:103060008F8598890197F1F7988B8F8782E060E0D0
:103070000E943B2780E090E0A0EAB1E48B879C8728
:10308000AD87BE876B857C858D859E8520E030E091
:103090004AE755E40E941F02DC01CB018F83988729
:1030A000A987BA876F81788589859A8520E030E085
:1030B00040E85FE30E94790388232CF481E090E0EC
:1030C0009E838D833FC06F81788589859A8520E0B6
:1030D0003FEF4FE757E40E94190318164CF56B8534
:1030E0007C858D859E8520E030E040E251E40E94A1
:1030F0001F02DC01CB01BC01CD010E944900DC01B3
:10310000CB019E838D830FC080E991E09C838B83EC
:103110008B819C810197F1F79C838B838D819E81AC
:1031200001979E838D838D819E81009769F714C0DE
:103130006F81788589859A850E944900DC01CB01E1
:103140009E838D838D819E819A83898389819A81D3
:103150000197F1F79A83898380915A01823029F48B
:103160008AE091E00E94122711C080915A018823C1
:1031700029F482E191E00E94122708C080915A014F
:10318000813021F48AE191E00E941227CA5BDF4F6F
:103190000FB6F894DEBF0FBECDBFCF91DF911F9168
:1031A0000F910895DF93CF9300D0CDB7DEB7809114
:1031B0005A018230E1F480915901282F30E03A839E
:1031C000298389819A81009731F029813A812130C0
:1031D000310529F006C081E08093570102C01092AA
:1031E000570180915B01823011F40E94EE0C0F9028
:1031F0000F90CF91DF910895DF93CF9300D0CDB79B
:10320000DEB780915A01282F30E03A8329838981E3
:103210009A8181309105D1F129813A81223031059D
:10322000E9F089819A81009709F046C00E943F2108
:10323000823361F482E080935A010E94A21B82E0F3
:103240000E94F22839C084E00E946A280E943F212F
:103250008134C9F384E00E94AE282EC00E943F2131
:10326000823361F481E080935A010E94A21B82E0C4
:103270000E94F22821C084E00E946A280E943F2117
:103280008134C9F384E00E94AE2816C00E943F2119
:10329000823359F410925A010E94A21B82E00E94CC
:1032A000F2280AC084E00E946A280E943F218134EB
:1032B000C9F384E00E94AE2880915B01833011F451
:1032C0000E9436160F900F90CF91DF910895DF93F3
:1032D000CF930F92CDB7DEB7898380914E01809353
:1032E0005101809151018A3048F010925101809132
:1032F00052018F5F8093520110924E0180915201D2
:10330000863038F010925201809153018F5F809384
:103310005301809153018A3038F01092530180910B
:103320003A018F5F80933A0180913A01863038F0FC
:1033300010925301809154018F5F809354018091CA
:1033400054018A3038F010925401809155018F5FFA
:103350008093550180915501833060F010925101A6
:10336000109252011092530110923A01109254019E
:10337000109255010F90CF91DF910895DF93CF9375
:10338000CDB7DEB780914E018F5F80934E01809163
:103390004F018F5F80934F0180914E010E9467190A
:1033A00080915001813029F483E067E00E94CE1EB5
:1033B00005C083E067E040E00E94C41DCF91DF912B
:1033C0000895DF93CF93CDB7DEB72E970FB6F8945D
:1033D000DEBF0FBECDBF80E064E00E943B2782E2EB
:1033E00091E00E94122781E064E00E943B2787E27F
:1033F00091E00E94122781E064E00E943B278091C7
:103400005501882F90E0A0E0B0E0BC01CD010E9402
:103410006C2781E065E00E943B2780915401882F52
:1034200090E0A0E0B0E0BC01CD010E946C2781E0FB
:1034300066E00E943B2780E391E00E94122781E032
:1034400067E00E943B2780913A01882F90E0A0E03E
:10345000B0E0BC01CD010E946C2781E068E00E94D1
:103460003B2780915301882F90E0A0E0B0E0BC01A1
:10347000CD010E946C2781E069E00E943B2780E338
:1034800091E00E94122781E06AE00E943B27809130
:103490005201882F90E0A0E0B0E0BC01CD010E9475
:1034A0006C2781E06BE00E943B2780915101882FBF
:1034B00090E0A0E0B0E0BC01CD010E946C2780E06C
:1034C00090E0A8E4B2E48B879C87AD87BE876B85CC
:1034D0007C858D859E8520E030E04AE755E40E949A
:1034E0001F02DC01CB018F839887A987BA876F8180
:1034F000788589859A8520E030E040E85FE30E9486
:10350000790388232CF481E090E09E838D833FC073
:103510006F81788589859A8520E03FEF4FE757E4F2
:103520000E94190318164CF56B857C858D859E8548
:1035300020E030E040E251E40E941F02DC01CB01B8
:10354000BC01CD010E944900DC01CB019E838D832B
:103550000FC080E991E09C838B838B819C810197D4
:10356000F1F79C838B838D819E8101979E838D8350
:103570008D819E81009769F714C06F817885898558
:103580009A850E944900DC01CB019E838D838D8149
:103590009E819A83898389819A810197F1F79A8321
:1035A00089832E960FB6F894DEBF0FBECDBFCF91A4
:1035B000DF910895DF93CF93CDB7DEB70E94E11975
:1035C000CF91DF910895DF93CF93CDB7DEB7A7E218
:1035D000B0E0E7E2F0E0808180648C93A7E2B0E0A5
:1035E000E7E2F0E080818F778C93A7E2B0E0E7E23A
:1035F000F0E080818F7D8C93A6E2B0E0E6E2F0E01F
:10360000808181608C93A6E2B0E0E6E2F0E0808108
:1036100082608C93A6E2B0E0E6E2F0E08081846014
:103620008C93A6E2B0E0E6E2F0E0808180628C93C9
:10363000A6E2B0E0E6E2F0E0808180688C93A6E24A
:10364000B0E0E6E2F0E0808180648C93CF91DF917E
:103650000895DF93CF9300D000D00F92CDB7DEB79F
:103660008D8319821A821B821C82A7E2B0E0E7E2F6
:10367000F0E08081807E8C93A7E2B0E0E7E2F0E0AA
:1036800090818D81892B8C9316C089819A81AB8121
:10369000BC810196A11DB11D89839A83AB83BC8334
:1036A000E6E2F0E0808182958F70882F90E0817053
:1036B0009070882361F489819A81AB81BC818038C4
:1036C00024E892072EE1A20720E0B207F0F2E4E23C
:1036D000F0E0808191810F900F900F900F900F90EC
:1036E000CF91DF910895DF93CF93CDB7DEB783E01D
:1036F00066E041E00E94BA1CCF91DF910895DF930C
:10370000CF93CDB7DEB783E066E041E00E94C41DF1
:10371000CF91DF910895DF93CF93CDB7DEB783E0EC
:1037200066E040E00E94C41DCF91DF910895DF93D1
:10373000CF93CDB7DEB783E066E00E94CE1ECF9177
:10374000DF910895DF93CF93CDB7DEB72E970FB6F5
:10375000F894DEBF0FBECDBF83E066E041E00E947B
:10376000C41D80E090E0A0E2B1E48B879C87AD8728
:10377000BE876B857C858D859E8520E030E04AE79D
:1037800055E40E941F02DC01CB018F839887A98733
:10379000BA876F81788589859A8520E030E040E896
:1037A0005FE30E94790388232CF481E090E09E83FC
:1037B0008D833FC06F81788589859A8520E03FEFB2
:1037C0004FE757E40E94190318164CF56B857C856A
:1037D0008D859E8520E030E040E251E40E941F028A
:1037E000DC01CB01BC01CD010E944900DC01CB0111
:1037F0009E838D830FC080E991E09C838B838B81B6
:103800009C810197F1F79C838B838D819E81019729
:103810009E838D838D819E81009769F714C06F818F
:10382000788589859A850E944900DC01CB019E83B9
:103830008D838D819E819A83898389819A81019765
:10384000F1F79A83898383E066E040E00E94C41D1B
:103850002E960FB6F894DEBF0FBECDBFCF91DF918D
:103860000895DF93CF93CDB7DEB72E970FB6F894B8
:10387000DEBF0FBECDBF0E94A21B80E090E0A0EA99
:10388000B2E48B879C87AD87BE876B857C858D85F1
:103890009E8520E030E04AE755E40E941F02DC01EB
:1038A000CB018F839887A987BA876F8178858985AF
:1038B0009A8520E030E040E85FE30E9479038823A6
:1038C0002CF481E090E09E838D833FC06F817885EA
:1038D00089859A8520E03FEF4FE757E40E9419035E
:1038E00018164CF56B857C858D859E8520E030E033
:1038F00040E251E40E941F02DC01CB01BC01CD017A
:103900000E944900DC01CB019E838D830FC080E9BA
:1039100091E09C838B838B819C810197F1F79C8341
:103920008B838D819E8101979E838D838D819E8166
:10393000009769F714C06F81788589859A850E9400
:103940004900DC01CB019E838D838D819E819A830A
:10395000898389819A810197F1F79A8389830E94EB
:10396000A21B2E960FB6F894DEBF0FBECDBFCF912F
:10397000DF910895DF93CF93CDB7DEB729970FB6C8
:10398000F894DEBF0FBECDBF89836A834B838B81E2
:10399000282F30E03987288788859985009739F066
:1039A000288539852130310509F476C0E4C0898144
:1039B000282F30E03F832E838E819F8182309105B6
:1039C00061F12E813F812330310534F48E819F8156
:1039D0008130910569F0CFC02E813F8123303105C0
:1039E00089F18E819F818430910509F440C0C3C064
:1039F000AAE3B0E0EAE3F0E08081482F8A81282F33
:103A000030E081E090E0022E02C0880F991F0A94F6
:103A1000E2F7809584238C93AEC0A7E3B0E0E7E3A0
:103A2000F0E08081482F8A81282F30E081E090E00B
:103A3000022E02C0880F991F0A94E2F78095842312
:103A40008C9399C0A4E3B0E0E4E3F0E08081482FD8
:103A50008A81282F30E081E090E0022E02C0880F9A
:103A6000991F0A94E2F7809584238C9384C0A1E384
:103A7000B0E0E1E3F0E08081482F8A81282F30E038
:103A800081E090E0022E02C0880F991F0A94E2F7AD
:103A9000809584238C936FC08981282F30E03D83EB
:103AA0002C838C819D818230910551F12C813D8147
:103AB0002330310534F48C819D818130910561F092
:103AC0005AC02C813D812330310571F18C819D815B
:103AD00084309105E9F14FC0AAE3B0E0EAE3F0E0F9
:103AE0008081482F8A81282F30E081E090E0022EEB
:103AF00002C0880F991F0A94E2F7842B8C933BC075
:103B0000A7E3B0E0E7E3F0E08081482F8A81282F27
:103B100030E081E090E0022E02C0880F991F0A94E5
:103B2000E2F7842B8C9327C0A4E3B0E0E4E3F0E059
:103B30008081482F8A81282F30E081E090E0022E9A
:103B400002C0880F991F0A94E2F7842B8C9313C04C
:103B5000A1E3B0E0E1E3F0E08081482F8A81282FE3
:103B600030E081E090E0022E02C0880F991F0A9495
:103B7000E2F7842B8C9329960FB6F894DEBF0FBE24
:103B8000CDBFCF91DF910895DF93CF93CDB7DEB74F
:103B900029970FB6F894DEBF0FBECDBF89836A8325
:103BA0004B838B81282F30E039872887888599853A
:103BB000009739F0288539852130310509F476C020
:103BC000E4C08981282F30E03F832E838E819F813E
:103BD0008230910561F12E813F812330310534F42B
:103BE0008E819F818130910569F0CFC02E813F8108
:103BF0002330310589F18E819F818430910509F44C
:103C000040C0C3C0ABE3B0E0EBE3F0E08081482FFD
:103C10008A81282F30E081E090E0022E02C0880FD8
:103C2000991F0A94E2F7809584238C93AEC0A8E391
:103C3000B0E0E8E3F0E08081482F8A81282F30E06F
:103C400081E090E0022E02C0880F991F0A94E2F7EB
:103C5000809584238C9399C0A5E3B0E0E5E3F0E080
:103C60008081482F8A81282F30E081E090E0022E69
:103C700002C0880F991F0A94E2F7809584238C93E1
:103C800084C0A2E3B0E0E2E3F0E08081482F8A81C3
:103C9000282F30E081E090E0022E02C0880F991FAB
:103CA0000A94E2F7809584238C936FC08981282F32
:103CB00030E03D832C838C819D818230910551F1D0
:103CC0002C813D812330310534F48C819D818130FC
:103CD000910561F05AC02C813D812330310571F18D
:103CE0008C819D8184309105E9F14FC0ABE3B0E058
:103CF000EBE3F0E08081482F8A81282F30E081E0DB
:103D000090E0022E02C0880F991F0A94E2F7842BDC
:103D10008C933BC0A8E3B0E0E8E3F0E08081482F5B
:103D20008A81282F30E081E090E0022E02C0880FC7
:103D3000991F0A94E2F7842B8C9327C0A5E3B0E087
:103D4000E5E3F0E08081482F8A81282F30E081E090
:103D500090E0022E02C0880F991F0A94E2F7842B8C
:103D60008C9313C0A2E3B0E0E2E3F0E08081482F3F
:103D70008A81282F30E081E090E0022E02C0880F77
:103D8000991F0A94E2F7842B8C9329960FB6F89426
:103D9000DEBF0FBECDBFCF91DF910895DF93CF93EC
:103DA00000D000D0CDB7DEB789836A838981282F00
:103DB00030E03C832B838B819C818230910551F1D3
:103DC0002B813C812330310534F48B819C818130FF
:103DD000910561F05AC02B813C812330310571F18E
:103DE0008B819C8184309105E9F14FC0ABE3B0E059
:103DF000EBE3F0E08081482F8A81282F30E081E0DA
:103E000090E0022E02C0880F991F0A94E2F78427DF
:103E10008C933BC0A8E3B0E0E8E3F0E08081482F5A
:103E20008A81282F30E081E090E0022E02C0880FC6
:103E3000991F0A94E2F784278C9327C0A5E3B0E08A
:103E4000E5E3F0E08081482F8A81282F30E081E08F
:103E500090E0022E02C0880F991F0A94E2F784278F
:103E60008C9313C0A2E3B0E0E2E3F0E08081482F3E
:103E70008A81282F30E081E090E0022E02C0880F76
:103E8000991F0A94E2F784278C930F900F900F905C
:103E90000F90CF91DF910895DF93CF9300D000D0A2
:103EA0000F92CDB7DEB78A836B8319828A81282F60
:103EB00030E03D832C834C815D814230510541F1DE
:103EC0008C819D818330910534F42C813D8121309A
:103ED000310561F052C04C815D814330510551F193
:103EE0008C819D8184309105B9F147C0E9E3F0E010
:103EF0008081282F30E08B81882F90E0A90102C0BB
:103F0000559547958A95E2F7CA018170898335C036
:103F1000E6E3F0E08081282F30E08B81882F90E06D
:103F2000A90102C0559547958A95E2F7CA018170AB
:103F3000898323C0E3E3F0E08081282F30E08B8188
:103F4000882F90E0A90102C0559547958A95E2F720
:103F5000CA018170898311C0E0E3F0E08081282FDD
:103F600030E08B81882F90E0A90102C055954795DC
:103F70008A95E2F7CA018170898389810F900F9039
:103F80000F900F900F90CF91DF910895DF93CF9313
:103F900000D00F92CDB7DEB789838981282F30E01A
:103FA0003B832A838A819B8181309105F9F02A81A4
:103FB0003B812230310581F18A819B810097D1F5C7
:103FC000A5E5B0E0E5E5F0E080818E7F8C93A5E586
:103FD000B0E0E5E5F0E0808182608C93ABE5B0E095
:103FE000EBE5F0E0808180648C9324C0A5E5B0E02F
:103FF000E5E5F0E080818B7F8C93A5E5B0E0E5E519
:10400000F0E0808188608C93ABE5B0E0EBE5F0E018
:10401000808180688C930EC0A4E5B0E0E4E5F0E018
:10402000808180648C93ABE5B0E0EBE5F0E08081CB
:1040300080628C930F900F900F90CF91DF91089535
:10404000DF93CF9300D000D00F92CDB7DEB7898336
:104050007B836A838981282F30E03D832C838C8188
:104060009D818130910581F02C813D812230310587
:1040700091F08C819D810097A1F48A819B8190931E
:104080006701809366010DC08A819B8190936301D3
:104090008093620106C08A819B8190936501809321
:1040A00064010F900F900F900F900F90CF91DF91C0
:1040B00008951F920F920FB60F9211242F933F93E2
:1040C0004F935F936F937F938F939F93AF93BF9320
:1040D000EF93FF93DF93CF93CDB7DEB7E091660107
:1040E000F09167010995CF91DF91FF91EF91BF9119
:1040F000AF919F918F917F916F915F914F913F9180
:104100002F910F900FBE0F901F9018951F920F9236
:104110000FB60F9211242F933F934F935F936F939A
:104120007F938F939F93AF93BF93EF93FF93DF930F
:10413000CF93CDB7DEB7E0916201F09163010995AD
:10414000CF91DF91FF91EF91BF91AF919F918F91AF
:104150007F916F915F914F913F912F910F900FBE83
:104160000F901F9018951F920F920FB60F92112467
:104170002F933F934F935F936F937F938F939F936F
:10418000AF93BF93EF93FF93DF93CF93CDB7DEB79A
:10419000E0916401F09165010995CF91DF91FF9164
:1041A000EF91BF91AF919F918F917F916F915F91AF
:1041B0004F913F912F910F900FBE0F901F90189528
:1041C000DF93CF93CDB7DEB7AFE5B0E0EFE5F0E03A
:1041D000808180688C93CF91DF910895DF93CF9396
:1041E000CDB7DEB7AFE5B0E0EFE5F0E080818F77E7
:1041F0008C93CF91DF910895DF93CF93CDB7DEB746
:1042000083E065E041E00E94BA1C83E064E041E0A5
:104210000E94BA1C83E063E041E00E94BA1C83E084
:1042200062E041E00E94BA1C84E067E040E00E9446
:10423000BA1C84E066E040E00E94BA1C84E065E0BD
:1042400040E00E94BA1C84E063E040E00E94BA1C97
:1042500083E065E041E00E94C41D83E064E041E04A
:104260000E94C41D83E063E041E00E94C41D83E01E
:1042700062E041E00E94C41DCF91DF910895DF9379
:10428000CF93CDB7DEB7AA970FB6F894DEBF0FBEB7
:10429000CDBFAE014E5E5F4F5FA34EA38EE391E0B4
:1042A00099A788A790E19AA7E8A5F9A5008048A555
:1042B00059A54F5F5F4F59A748A7EEA1FFA1008204
:1042C0004EA15FA14F5F5F4F5FA34EA35AA5515010
:1042D0005AA78AA5882341F78FEF898B188A1F86F2
:1042E00087E08AA386E08BA385E08CA383E08DA37F
:1042F00085E08F871FC183E06F8540E00E94C41D69
:10430000188A09C18889282F30E0CE018296FC01E5
:10431000E20FF31F908184E0692F0E944C1F8823D5
:1043200009F0F6C080E090E0A0EFB2E48B879C87B4
:10433000AD87BE876B857C858D859E8520E030E0CE
:104340004AE755E40E941F02DC01CB018F83988766
:10435000A987BA876F81788589859A8520E030E0C2
:1043600040E85FE30E94790388232CF481E090E029
:104370009E838D833FC06F81788589859A8520E0F3
:104380003FEF4FE757E40E94190318164CF56B8571
:104390007C858D859E8520E030E040E251E40E94DE
:1043A0001F02DC01CB01BC01CD010E944900DC01F0
:1043B000CB019E838D830FC080E991E09C838B832A
:1043C0008B819C810197F1F79C838B838D819E81EA
:1043D00001979E838D838D819E81009769F714C01C
:1043E0006F81788589859A850E944900DC01CB011F
:1043F0009E838D838D819E819A83898389819A8111
:104400000197F1F79A8389838889282F30E0CE01BC
:104410008296FC01E20FF31F908184E0692F0E94D5
:104420004C1F882309F074C08F85282F30E085E069
:1044300090E0FC01E21BF30B9F018889482F50E0BC
:10444000220F331F220F331FCE010196820F931FBD
:10445000840F951FFC0171968081898B8989843333
:1044600079F08989853361F08989863349F08989B2
:10447000873331F08989883319F08989893351F577
:104480008889282F30E0CE018296FC01E20FF31FCD
:10449000908184E0692F0E944C1F882389F38F85C7
:1044A000282F30E085E090E0AC01421B530B9A01CD
:1044B0008889482F50E0220F331F220F331FCE016F
:1044C0000196820F931F840F951FFC0171968081C6
:1044D000898B25C08989823311F58F85282F30E09B
:1044E00085E090E0FC01E21BF30B9F018889482FD7
:1044F00050E0220F331F220F331FCE010196820F8F
:10450000931F840F951FFC0171968081898B07C0D2
:1045100088898F5F888B8889843008F4F3CE83E0A4
:104520006F8541E00E94C41D89898F3F39F48F85D2
:1045300081508F878F85823008F0DDCE8989AA96D9
:104540000FB6F894DEBF0FBECDBFCF91DF910895B7
:10455000DF93CF93CDB7DEB7E8970FB6F894DEBF01
:104560000FBECDBF82E060E041E00E94BA1C82E055
:1045700061E041E00E94BA1C82E062E041E00E94FA
:10458000BA1C82E064E041E00E94BA1C81E063E072
:1045900041E00E94BA1C81E062E041E00E94BA1C46
:1045A00080E090E0A0EFB1E48DAB9EABAFABB8AFD5
:1045B0006DA97EA98FA998AD20E030E04AE755E4C7
:1045C0000E941F02DC01CB0189AB9AABABABBCAB49
:1045D00069A97AA98BA99CA920E030E040E85FE3B3
:1045E0000E94790388232CF481E090E098AB8FA798
:1045F0003FC069A97AA98BA99CA920E03FEF4FE7AA
:1046000057E40E94190318164CF56DA97EA98FA9CD
:1046100098AD20E030E040E251E40E941F02DC014E
:10462000CB01BC01CD010E944900DC01CB0198AB5C
:104630008FA70FC080E991E09EA78DA78DA59EA5AD
:104640000197F1F79EA78DA78FA598A9019798AB21
:104650008FA78FA598A9009769F714C069A97AA9AF
:104660008BA99CA90E944900DC01CB0198AB8FA7C4
:104670008FA598A99CA78BA78BA59CA50197F1F75F
:104680009CA78BA788E20E94002780E090E0A0E032
:10469000B0E48FA398A7A9A7BAA76FA178A589A509
:1046A0009AA520E030E04AE755E40E941F02DC01B1
:1046B000CB018BA39CA3ADA3BEA36BA17CA18DA1B9
:1046C0009EA120E030E040E85FE30E947903882368
:1046D0002CF481E090E09AA389A33FC06BA17CA158
:1046E0008DA19EA120E03FEF4FE757E40E94190300
:1046F00018164CF56FA178A589A59AA520E030E0A1
:1047000040E251E40E941F02DC01CB01BC01CD015B
:104710000E944900DC01CB019AA389A30FC080E964
:1047200091E098A38F8F8F8D98A10197F1F798A3AF
:104730008F8F89A19AA101979AA389A389A19AA190
:10474000009769F714C06BA17CA18DA19EA10E9466
:104750004900DC01CB019AA389A389A19AA19E8F6C
:104760008D8F8D8D9E8D0197F1F79E8F8D8F8CE0B3
:104770000E94002780E090E0A0E0B0E4898F9A8F4B
:10478000AB8FBC8F698D7A8D8B8D9C8D20E030E056
:104790004AE755E40E941F02DC01CB018D8B9E8B02
:1047A000AF8BB88F6D897E898F89988D20E030E03E
:1047B00040E85FE30E94790388232CF481E090E0D5
:1047C0009C8B8B8B3FC06D897E898F89988D20E073
:1047D0003FEF4FE757E40E94190318164CF5698D17
:1047E0007A8D8B8D9C8D20E030E040E251E40E9478
:1047F0001F02DC01CB01BC01CD010E944900DC019C
:10480000CB019C8B8B8B0FC080E991E09A8B898BBD
:1048100089899A890197F1F79A8B898B8B899C8971
:1048200001979C8B8B8B8B899C89009769F714C0AF
:104830006D897E898F89988D0E944900DC01CB01AA
:104840009C8B8B8B8B899C89988B8F878F85988984
:104850000197F1F7988B8F8781E00E94002780E015
:1048600090E0A0E0B0E48B879C87AD87BE876B8526
:104870007C858D859E8520E030E04AE755E40E94E6
:104880001F02DC01CB018F839887A987BA876F81CC
:10489000788589859A8520E030E040E85FE30E94D2
:1048A000790388232CF481E090E09E838D833FC0C0
:1048B0006F81788589859A8520E03FEF4FE757E43F
:1048C0000E94190318164CF56B857C858D859E8595
:1048D00020E030E040E251E40E941F02DC01CB0105
:1048E000BC01CD010E944900DC01CB019E838D8378
:1048F0000FC080E991E09C838B838B819C81019721
:10490000F1F79C838B838D819E8101979E838D839C
:104910008D819E81009769F714C06F8178858985A4
:104920009A850E944900DC01CB019E838D838D8195
:104930009E819A83898389819A810197F1F79A836D
:10494000898382E00E940027E8960FB6F894DEBFC4
:104950000FBECDBFCF91DF910895DF93CF93CDB739
:10496000DEB7E9970FB6F894DEBF0FBECDBF89AFB3
:1049700089AD82958F70982F917082E060E0492F09
:104980000E94C41D89AD829586958770982F91707D
:1049900082E061E0492F0E94C41D89AD8295869511
:1049A00086958370982F917082E062E0492F0E9473
:1049B000C41D89AD982F991F9927991F82E064E043
:1049C000492F0E94C41D81E062E041E00E94C41DA5
:1049D00080E090E0A0E8BFE38DAB9EABAFABB8AF9B
:1049E0006DA97EA98FA998AD20E030E04AE755E493
:1049F0000E941F02DC01CB0189AB9AABABABBCAB15
:104A000069A97AA98BA99CA920E030E040E85FE37E
:104A10000E94790388232CF481E090E098AB8FA763
:104A20003FC069A97AA98BA99CA920E03FEF4FE775
:104A300057E40E94190318164CF56DA97EA98FA999
:104A400098AD20E030E040E251E40E941F02DC011A
:104A5000CB01BC01CD010E944900DC01CB0198AB28
:104A60008FA70FC080E991E09EA78DA78DA59EA579
:104A70000197F1F79EA78DA78FA598A9019798ABED
:104A80008FA78FA598A9009769F714C069A97AA97B
:104A90008BA99CA90E944900DC01CB0198AB8FA790
:104AA0008FA598A99CA78BA78BA59CA50197F1F72B
:104AB0009CA78BA781E062E040E00E94C41D80E0DB
:104AC00090E0A0EAB0E48FA398A7A9A7BAA76FA126
:104AD00078A589A59AA520E030E04AE755E40E9430
:104AE0001F02DC01CB018BA39CA3ADA3BEA36BA1D2
:104AF0007CA18DA19EA120E030E040E85FE30E9410
:104B0000790388232CF481E090E09AA389A33FC025
:104B10006BA17CA18DA19EA120E03FEF4FE757E460
:104B20000E94190318164CF56FA178A589A59AA5BE
:104B300020E030E040E251E40E941F02DC01CB01A2
:104B4000BC01CD010E944900DC01CB019AA389A3DD
:104B50000FC080E991E098A38F8F8F8D98A1019766
:104B6000F1F798A38F8F89A19AA101979AA389A39E
:104B700089A19AA1009769F714C06BA17CA18DA1AE
:104B80009EA10E944900DC01CB019AA389A389A1BF
:104B90009AA19E8F8D8F8D8D9E8D0197F1F79E8F9F
:104BA0008D8F89AD982F917082E060E0492F0E942F
:104BB000C41D89AD8695982F917082E061E0492FE0
:104BC0000E94C41D89AD86958695982F917082E0CC
:104BD00062E0492F0E94C41D89AD86958695869511
:104BE000982F917082E064E0492F0E94C41D81E0FB
:104BF00062E041E00E94C41D80E090E0A0E8BFE3D5
:104C0000898F9A8FAB8FBC8F698D7A8D8B8D9C8DA0
:104C100020E030E04AE755E40E941F02DC01CB01AE
:104C20008D8B9E8BAF8BB88F6D897E898F89988D88
:104C300020E030E040E85FE30E94790388232CF411
:104C400081E090E09C8B8B8B3FC06D897E898F8942
:104C5000988D20E03FEF4FE757E40E9419031816A4
:104C60004CF5698D7A8D8B8D9C8D20E030E040E293
:104C700051E40E941F02DC01CB01BC01CD010E9466
:104C80004900DC01CB019C8B8B8B0FC080E991E04C
:104C90009A8B898B89899A890197F1F79A8B898BED
:104CA0008B899C8901979C8B8B8B8B899C89009726
:104CB00069F714C06D897E898F89988D0E9449009B
:104CC000DC01CB019C8B8B8B8B899C89988B8F878C
:104CD0008F8598890197F1F7988B8F8781E062E043
:104CE00040E00E94C41D80E090E0A0EAB0E48B8721
:104CF0009C87AD87BE876B857C858D859E8520E0F2
:104D000030E04AE755E40E941F02DC01CB018F83AB
:104D10009887A987BA876F81788589859A8520E0E9
:104D200030E040E85FE30E94790388232CF481E0BF
:104D300090E09E838D833FC06F81788589859A85B9
:104D400020E03FEF4FE757E40E94190318164CF597
:104D50006B857C858D859E8520E030E040E251E4C6
:104D60000E941F02DC01CB01BC01CD010E94490061
:104D7000DC01CB019E838D830FC080E991E09C8391
:104D80008B838B819C810197F1F79C838B838D8131
:104D90009E8101979E838D838D819E81009769F707
:104DA00014C06F81788589859A850E944900DC014D
:104DB000CB019E838D838D819E819A838983898196
:104DC0009A810197F1F79A838983E9960FB6F8944F
:104DD000DEBF0FBECDBFCF91DF910895DF93CF939C
:104DE0000F92CDB7DEB7898381E063E041E00E9496
:104DF000C41D89810E94AD240F90CF91DF91089549
:104E0000DF93CF930F92CDB7DEB7898381E063E064
:104E100040E00E94C41D89810E94AD240F90CF9173
:104E2000DF910895DF93CF9300D00F92CDB7DEB717
:104E30009B838A8319820EC08981282F30E08A8162
:104E40009B81FC01E20FF31F80810E94EE26898185
:104E50008F5F89838981282F30E08A819B81FC01C3
:104E6000E20FF31F8081882339F70F900F900F9086
:104E7000CF91DF910895DF93CF9300D000D000D081
:104E8000CDB7DEB78D836E83198280E48A8384E197
:104E90008B8384E58C838D81282F30E0CE010196B1
:104EA000FC01E20FF31F90818E81890F80580E94D0
:104EB000002726960FB6F894DEBF0FBECDBFCF9168
:104EC000DF910895DF93CF93CDB7DEB781E00E94E5
:104ED0000027CF91DF9108950F931F93DF93CF9316
:104EE000CDB7DEB72F970FB6F894DEBF0FBECDBF9C
:104EF0006C877D878E879F878AE0FE013296DF016F
:104F0000982F1D929A95E9F78FEF89832FC0898199
:104F10008F5F89838981082F112707FD10958C8564
:104F20009D85AE85BF852AE030E040E050E0BC01C1
:104F3000CD010E94EB2ADC01CB01282FCE01029685
:104F4000FC01E00FF11F20838C859D85AE85BF8518
:104F50002AE030E040E050E0BC01CD010E94EB2AA5
:104F6000DA01C9018C879D87AE87BF878C859D85B7
:104F7000AE85BF850097A105B10549F611C08981AD
:104F8000282F332727FD3095CE010296FC01E20F32
:104F9000F31F8081805D0E94EE2689818150898384
:104FA0008981882364F72F960FB6F894DEBF0FBE71
:104FB000CDBFCF91DF911F910F910895DF93CF93D4
:104FC00000D000D00F92CDB7DEB79C838B836D836A
:104FD0008D8187708D838D81882F90E0880F991F38
:104FE000880F991F880F991F80640E9400271A82DA
:104FF00019820FC029813A818B819C81FC01E20FCB
:10500000F31F80810E94EE2689819A8101969A83FE
:10501000898389819A818830910564F30F900F907C
:105020000F900F900F90CF91DF910895DF93CF9362
:105030000F92CDB7DEB7898380E80E94002789816F
:105040000E94EE260F90CF91DF910895DF93CF93CA
:1050500000D00F92CDB7DEB789838981282F30E049
:105060003B832A838A819B8182309105E1F02A81EA
:105070003B812330310534F48A819B818130910555
:1050800061F022C02A813B812330310591F08A8171
:105090009B818430910599F017C081E065E041E083
:1050A0000E94BA1C11C081E064E041E00E94BA1C79
:1050B0000BC082E067E041E00E94BA1C05C081E0BD
:1050C00066E041E00E94BA1C0F900F900F90CF91C4
:1050D000DF910895DF93CF9300D00F92CDB7DEB765
:1050E00089838981282F30E03B832A838A819B81B1
:1050F00082309105E1F02A813B812330310534F47F
:105100008A819B818130910561F022C02A813B8197
:105110002330310591F08A819B818430910599F08B
:1051200017C081E065E041E00E94C41D11C081E02C
:1051300064E041E00E94C41D0BC082E067E041E0F2
:105140000E94C41D05C081E066E041E00E94C41DCC
:105150000F900F900F90CF91DF910895DF93CF9331
:1051600000D00F92CDB7DEB789838981282F30E038
:105170003B832A838A819B8182309105E1F02A81D9
:105180003B812330310534F48A819B818130910544
:1051900061F022C02A813B812330310591F08A8160
:1051A0009B818430910599F017C081E065E040E073
:1051B0000E94C41D11C081E064E040E00E94C41D53
:1051C0000BC082E067E040E00E94C41D05C081E0A2
:1051D00066E040E00E94C41D0F900F900F90CF91A9
:1051E000DF910895DF93CF9300D00F92CDB7DEB754
:1051F00089838981282F30E03B832A838A819B81A0
:1052000082309105D9F02A813B812330310534F475
:105210008A819B818130910561F01EC02A813B818A
:105220002330310581F08A819B818430910581F0A2
:1052300013C081E065E00E94CE1E0EC081E064E0F4
:105240000E94CE1E09C082E067E00E94CE1E04C00C
:1052500081E066E00E94CE1E0F900F900F90CF91DC
:10526000DF910895DF93CF93CDB7DEB70E94E31AA5
:10527000CF91DF910895DF93CF9300D000D0CDB7C9
:10528000DEB79C838B831A82198281E00E94291BDE
:105290009A83898389819A81CC01A0E0B0E028ECCF
:1052A00030E040E050E0BC01CD010E94B82ADC01B2
:1052B000CB012FEF33E0B9010E94D72ACB01EB815C
:1052C000FC8191838083EB81FC8180819181893C89
:1052D000910530F0EB81FC8188EC90E09183808334
:1052E0000F900F900F900F90CF91DF910895DF9363
:1052F000CF9300D0CDB7DEB79A83898389819A8115
:1053000090936901809368010F900F90CF91DF9186
:105310000895DF93CF93CDB7DEB7ECE4F0E01182D0
:105320001082EAE4F0E089E09DE391838083A9E5BF
:10533000B0E0E9E5F0E0808180618C93AFE4B0E01B
:10534000EFE4F0E0808188608C93AEE4B0E0EEE4BE
:10535000F0E080818D608C93CF91DF910895DF9391
:10536000CF93CDB7DEB7ECE4F0E011821082A9E56F
:10537000B0E0E9E5F0E080818F7E8C93EAE4F0E034
:1053800011821082CF91DF9108951F920F920FB674
:105390000F9211242F933F934F935F936F937F93BB
:1053A0008F939F93AF93BF93EF93FF93DF93CF932D
:1053B000CDB7DEB7E0916801F09169010995CF9111
:1053C000DF91FF91EF91BF91AF919F918F917F916D
:1053D0006F915F914F913F912F910F900FBE0F9062
:1053E0001F901895DF93CF93CDB7DEB761970FB6B7
:1053F000F894DEBF0FBECDBF1F860E94A30580E0DC
:1054000090E0AAEFB3E48B879C87AD87BE876B855E
:105410007C858D859E8520E030E04AE755E40E943A
:105420001F02DC01CB018F839887A987BA876F8120
:10543000788589859A8520E030E040E85FE30E9426
:10544000790388232CF481E090E09E838D833FC014
:105450006F81788589859A8520E03FEF4FE757E493
:105460000E94190318164CF56B857C858D859E85E9
:1054700020E030E040E251E40E941F02DC01CB0159
:10548000BC01CD010E944900DC01CB019E838D83CC
:105490000FC080E991E09C838B838B819C81019775
:1054A000F1F79C838B838D819E8101979E838D83F1
:1054B0008D819E81009769F714C06F8178858985F9
:1054C0009A850E944900DC01CB019E838D838D81EA
:1054D0009E819A83898389819A810197F1F79A83C2
:1054E00089830E94C9068F878F85282F30E0398BEA
:1054F000288B888999898430910571F128893989A7
:105500002530310584F48889998982309105F1F03C
:105510002889398923303105E4F4888999898130D3
:10552000910589F06CCF2889398926303105D1F071
:10553000888999898630910594F02889398927309E
:10554000310599F05CCF0E94550859CF0E94380967
:1055500056CF0E94620953CF0E94D80950CF0E94B3
:10556000EA094DCF0E94FC094ACF0E94D21847CFCA
:10557000629FD001739FF001829FE00DF11D649F37
:10558000E00DF11D929FF00D839FF00D749FF00DC3
:10559000659FF00D9927729FB00DE11DF91F639F64
:1055A000B00DE11DF91FBD01CF0111240895AA1B03
:1055B000BB1B51E107C0AA1FBB1FA617B70710F0FE
:1055C000A61BB70B881F991F5A95A9F78095909530
:1055D000BC01CD010895A1E21A2EAA1BBB1BFD013F
:1055E0000DC0AA1FBB1FEE1FFF1FA217B307E407C2
:1055F000F50720F0A21BB30BE40BF50B661F771F1A
:10560000881F991F1A9469F76095709580959095F9
:105610009B01AC01BD01CF0108952F923F924F92A3
:105620005F926F927F928F929F92AF92BF92CF9232
:10563000DF92EF92FF920F931F93CF93DF93CDB73B
:10564000DEB7CA1BDB0B0FB6F894DEBF0FBECDBFB3
:1056500009942A88398848885F846E847D848C8484
:105660009B84AA84B984C884DF80EE80FD800C818D
:105670001B81AA81B981CE0FD11D0FB6F894DEBF70
:0C5680000FBECDBFED010895F894FFCFE0
:10568C00202057656C636F6D65200057415252495D
:10569C004E472121210057656C636F6D65004343B4
:1056AC00537C42417C53507C444D002D2D2D2D2D8F
:1056BC002D2D2D2D2D2D2D2D2D2D2D2D2D2D2D2D0E
:1056CC002D0053706565643A004B6D2F68004D5387
:1056DC003A004B6D00312F3400322F3400444D3AD8
:1056EC004F4646002D2D2D2D2D2D2D2D2D2D2D2DB7
:1056FC002D2D2D2D2D2D2D2D2D004343533A4F4661
:10570C00460042413A4F46460053503A4F464600F7
:10571C004343533A4F4E200042413A4F4E200053E0
:10572C00503A4F4E2000332F3400522C4E2C443A1A
:10573C004400522C4E2C443A4E00522C4E2C443ADF
:10574C00520074696D650030303A30303A303000B8
:10575C003A0000000000000000002D01002831324A
:0E576C00334134353642373839432A3023442E
:00000001FF
